:02000000F229E3
:10000800FF00030E8301C2000A08C3008A010B1D0A
:1000180016280B1163308100B40A0319B50AA00A27
:100028000319A10A43088A00420E8300FF0E7F0EBF
:020038000900BD
:06003A00000000000800B8
:100040000F3083120313FC004730FD00FD0B262800
:0A005000FC0B262800000000080049
:0E005A00213083120313FD00FD0B3128080036
:1000680083120313D31B3A2886113B288615531B8A
:100078003F28061140280615D31A4428861045281B
:100088008614531A492806104A28061444184E287C
:1000980006164F28061286161D208612D3195628D2
:1000A80086115728861553195B2806115C280615F2
:1000B800D3186028861061288614531865280610FE
:1000C8006628061444186A2806166B28061286162F
:1000D8001D208612441C7228202073282D20080019
:1000E80083120313F801F9011030FC00710DF80DAB
:1000F800F90D7408F8027508031C750FF902031846
:100108008C287408F80775080318750FF907031089
:0A011800F00DF10DFC0B7A28080031
:100122008312031344104E08D300342044140800F1
:1001320083120313D101053051020318A728510875
:100142005007840020308000D10A9C2851085007B3
:1001520084008001D10351085007D2000A30F40014
:10016200F5014E08F0004F08F10074207808F00005
:100172007908F1003030F0075208840070088000DE
:100182000A30F400F5014E08F0004F08F100742027
:100192007008CE007108CF0000307106031DD3280D
:1001A20000307006031DD628D828D103AC280800D9
:0E01B2008312031341088A00400882000800EF
:1001C000F228803083120313C5000529C030C50012
:1001D00005299430C5000529D430C5000529803093
:1001E000C5000529831203134508013A0319E128C4
:1001F0004508023A0319E6284508033A0319E92895
:100200004508043A0319EC28EF284603F000450896
:10021000F0077008C5007008D30034204410C801EE
:10022000480847078400000803191E2948084707A3
:1002300084000008CE009120C80A10294414080048
:1002400083160313861206120610861006118611F5
:1002500083128612061286110611861006102020BF
:10026000202020208614061486161D2086122020A9
:1002700086161D208612202086161D20861220201C
:10028000061086161D208612202086161D20861236
:100290008610861586161D208612202086110614CB
:1002A00086161D208612061086161D208612202016
:1002B00086161D208612061486161D208612202002
:1002C000061086161D20861286150615861406143D
:0C02D00086161D20861220204414080011
:1002DC0083120313CA01CB014508CC004608CD009C
:1002EC0080304606F00080307002031D7F290030FC
:1002FC00450203188D290130CA000030CB00450897
:10030C00003CCC004608031C013ECD01CD024C083C
:10031C00CE004D08CF004708D00099200630C80009
:10032C000030C9004908003C031D9E294808003CC8
:10033C000318B92948084707F20001304802F000B9
:10034C000030031C013E4902F1007008470784008D
:10035C000008F00072088400700880000130C802A8
:10036C00031CC903982947088400203080004A08E0
:10037C004B040319D729C801C90148084707840051
:10038C000008203A031DCE29C80A0319C90AC3293B
:10039C000130C802031CC9034808470784002D30EC
:0403AC0080000800C5
:1003B000831603138112811101158110011463301A
:0C03C000831281008B160B178B170800AE
:1003CC00D9208A110A128000840AC00A0319C10AB2
:0803DC00F003031DE6290800EF
:1003E40083120313A001A1016330A2006F30A300A4
:1003F4007530A4006E30A5007430A6006530A700E7
:100404007230A800A9015730AA006530AB006C30E7
:10041400AC006330AD006F30AE006D30AF006530BE
:10042400B000B101B201B301B401B501D821831602
:100434000910831209100130831689000E309F00C1
:1004440020210130D30034200C30D300342001307B
:10045400C5000530C6002A30C700E0201F30FB006D
:100464007130FC001E30FD00FD0B362AFC0B362AD1
:10047400FB0B362A00000130D30034200230C500C3
:100484000530C6003630C700E0200918832AA001D1
:10049400A10117302102031D512A703020020318D4
:1004A4006A2A09185B2A0918582A552AB20A031914
:1004B400B30A3208C5003308C6003630C7006E21BF
:1004C4000230C5000430C6003630C700E0204B2A95
:1004D4000130C5000530C6002230C700E0201F30BF
:1004E400FB007130FC001E30FD00FD0B772AFC0B75
:1004F400772AFB0B772A0000B201B3010130D30045
:060504003420472A842A7E
:02400E004A2F37
:00000001FF
